:100000002BEF00F0EA6A100EE96EEF50D8B416EF4D
:1000100000F0020E016E006A002EFED7012EFBD703
:10002000970E006E002EFED7EF2EF3D71200000EB3
:10003000936E956E936A0CC08AFF956A0DC08CFF13
:10004000929289920A0E106EDDDF12009EA8FED7F2
:10005000AD6E7DEF00F0F86AD09EB8960C0EAF6ED4
:10006000A20EAC6E900EAB6E0A6A0B6AC150C00B4A
:100070000F09C16E070EB46E046A056A000E926E17
:10008000929489949EAA7CD00B5207E19EAAFED737
:10009000AECF0AF00B2A75D073D00B2C07D09EAAD6
:1000A000FED7AECF0CF00B2A6CD06AD00B500208F2
:1000B00007E19EAAFED7AECF0DF00B2A62D060D02A
:1000C0000A50030802E0000E01D0010E106E0B5022
:1000D000030802E0000E01D0010E101411E0A7DFAA
:1000E000FF0E936E956E929089900A0E106E8ADFC5
:1000F000936881CF0EF00E50A9D70B6A42D040D042
:100100000B50030807E19EAAFED7AECF0EF00B2AD4
:1001100038D036D00B50040802E0000E01D0010E9A
:10012000106E0A2C01D002D0000E01D0010E101466
:100130000AE07DDF936A0EC08AFF0A0E106E62DF4E
:100140000B6A1FD01DD00B50040807E19EAAFED7F2
:10015000AECF0FF00B2A15D013D00B5005080DE1D0
:1001600066DF936A0EC08AFF936A0FC08AFF0A0E89
:10017000106E48DF0B6A05D003D0010E016E03D06C
:0801800081D7000E016E03009F
:020000040030CA
:0E00000001CC3F1E0087A1000FC00FE00F4093
:00000001FF
;PIC18F4550
;CRC=35A9  CREATED="03-Oct-23 12:52"
